:400000000010002011000000550500005505000080B500AF00F0A8FA80B500AF164B164A12688021C9020A431A60182000F01CFC114B114A126811490A401A60104B114ABE
:400040001A60114B10221A60104B802212061A60094B00221A600E4B0E4A1A600E4B1900092000F0F3FC092000F016FD0B4B00221A60C046BD4680BD00010B40FFFFFBFF32
:4000800004010B40060000803002024008010B400000024019000080190C00000C020B4080B586B000AF72B61723FB1800221A7025E01723FB181A7813005B009B185B00AE
:4000C000574A9B183B613B691A78597809020A43997809040A43DB781B06134318003B691A795B791B0213439BB2190000F0CAF91723FB181A781723FB1801321A701723AA
:40010000FB181B78022BD4D91723FB1800221A7036E01723FB181A7813009B009B185B00404A9B18FB60FB681A78597809020A43997809040A43DB781B061343BB60FB682C
:400140001A79597909020A43997909040A43DB791B0613437B60BA1CFB68197A5B7A1B020B431380BB1C1A887968BB68180000F099F91723FB181A781723FB1801321A7011
:400180001723FB181B78002BC3D0274A274B1100180000F097F9264B802252001A80254B01221A70244BC02292021A60234BEE2212021A60224B234A1A60234B8022120513
:4001C0001A60224B802292041A60214B992212041A60204A1F4B1B78DBB23C218B43DBB214210B43DBB213701B4A1B4B1B78DBB216210B43DBB21370184B10221A60184B7E
:40020000E02212021A60174BD82212011A60FFF703FF00F099F9C046BD4606B080BDC046C00D0000D40D0000FC0D0000E00D000000600F4002600F40040001400C00014033
:4002400010500F400400990014500F4018500F4030500F4001700F4000700F4000010440080104400803044010B5064C2378002B07D1054B002B02D0044800E000BF012388
:40028000237010BD4801002000000000A80D0000084B10B5002B03D00749084800E000BF07480368002B00D110BD064B002BFBD09847F9E7000000004C010020A80D0000C0
:4002C000C80000200000000080B582B000AFFB1D00221A70C04600F05BFA031EFBD000F045FA03001A00FB1D1A70FB1D1B781800BD4602B080BDC04690B58DB000AF786053
:400300002F23FB1800221A702E23FC18FFF7DCFF030023702E23FB181B78180000F050FA2E23FB181B78212B10D02F23FB181B780C22BA182E2179180978D1542F23FB1891
:400340001A782F23FB1801321A70DDE7C0462F23FB181A780C23F9187B68180000F012FD2F23FB181B781800BD460DB090BDC04680B500AF024B180000F03CFAFAE7C04655
:40038000AC0D0000F0B597B000AF62B600F06AF93B4B3B656B467B602F232022BA18D6182023FB181800FFF7A7FF030033702F2320229446BC4463441B7801335A1EBA6456
:4003C0001A003A6100227A61386979690200520F0E00F50015430200D4001A00BA600022FA60B868F9680200520F0E00F600FE61FE691643FE610200D200BA610733DB0812
:40040000DB006A46D31A9D466B4600337B642F2320229446BC4463441B78013B7B6512E02F2320229446BC4463441A787B6DD31A013B2022B9187A6D8A1811787A6CD15400
:400440007B6D013B7B657B6D002BE9DA2F2320229446BC4463441B787A6C2121D1540A2000F0AEF97B6C180000F0C4F97A6C3B6D9A4201D1FFF77CFF7B689D468AE7C04656
:40048000B80D000080B582B000AF786039603A687B680021180000F07EFCC046BD4602B080BDC04680B584B000AFF860B9607A607A68B968FB68180000F064FCC046BD4690
:4004C00004B080BD80B586B000AF7860396000233B6100237B612FE07B699B007A68D3181B68BB600F23FB18BA681A70BB68FF229343BB6018E03B695B003A68D3181B788C
:400500001A00BB68D31819003B695B003A68D3185B780B703B6901333B610F23FB181A780F23FB18013A1A700F23FB181B78002BE1D17B6901337B617B69062BCCD9C046E2
:40054000BD4606B080BDC04680B500AFC046BD4680BDC04680B500AF00F0E8FB03001B680C2B00D1FEE7FEE780B586B000AF224B7B61224B3B61204B7B6135E03B691B6851
:40058000FB603B695B68BB603B699B683B6000237B600CE0FB681A68BB681A60BB680433BB60FB680433FB607B6804337B607A683B689A42EED13B69DB683B6000237B60B1
:4005C00008E0BB6800221A60BB680433BB607B6804337B607A683B689A42F2D13B6910333B617B69013B7B617B69002BC6D100F0A3FBFFF7C7FEFEE701000000E81000007A
:4006000080B582B000AF00237B600FE07B68032B04D8104B7A689200D35800E00E4B0F4A796889008B507B6801337B607B682F2BECD9FFF735FD0A4B00221A608023DB0569
:400640008022D205126801210A431A60C046BD4602B080BD000000005505000000000020C000002080B500AF064B1B78002B04D100F00AF8034B01221A7000F023F8C04686
:40068000BD4680BD6401002080B500AF084B72221A70084B00221A70074B06221A70074B47221A70064B00221A70C046BD4680BD83000F4082000F4021000F4031000F4002
:4006C00080000F4090B583B000AFFC1D00F026FB03002370114A114B1B78DBB220210B43DBB213700E4A0E4B1B78DBB210210B43DBB213700B4A0B4B1B78DBB210210B4324
:40070000DBB2137000F0A2F8FB1D1B78180000F009FBC046BD4603B090BDC04693000F4092000F4090000F4080B582B000AF054AFB1D12781A70FB1D1B781800BD4602B0AE
:4007400080BDC04643000F4080B582B000AF064B1B78DAB2FB1D7F210A401A70FB1D1B781800BD4602B080BD62000F40B0B500AFFFF7EAFF03001B021CB2FFF7D5FF03007E
:400780001BB223431BB29BB21800BD46B0BDC04680B582B000AF094B1B78DBB21A002023134001D0012200E00022FB1D1A70FB1D1B781800BD4602B080BDC04662000F4020
:4007C00080B582B000AF0200FB1D1A70C046074B1B78DBB21A0004231340F8D1044AFB1D1B781370C046BD4602B080BD60000F4040000F4080B584B000AF78600E23FB1884
:4008000000221A80104B1B78002B18D00FE00E23FB181B887A68D3181B781800FFF7D0FF0E23FB181A880E23FB1801321A800E23FB181B887A68D3181B78002BE7D1C046C1
:40084000BD4604B080BDC0466401002080B500AF044B044A1268802109060A431A60C046BD4680BD0000024090B585B000AF78600C23FC1800F052FA030023707B68022BD9
:4008800000D8AFE07B68302B00D9ABE05C4B1B78DBB21A007B689A420AD35A4A0F23FB1812781A70584A0E23FB1812781A703FE0564B1B78DBB21A007B689A420AD3544A87
:4008C0000F23FB1812781A70524A0E23FB1812781A702DE0504B1B78DBB21A007B689A420AD34E4A0F23FB1812781A704C4A0E23FB1812781A701BE04A4B1B78DBB21A0084
:400900007B689A420AD3484A0F23FB1812781A70464A0E23FB1812781A7009E0444A0F23FB1812781A70434A0E23FB1812781A707B68DA1E0B23FB183F498A5C1A700B2351
:40094000FB181B782F2B0DD97B682A2B0AD93B4B19221A60052000F0D7F90D23FB1819221A7007E0354B1B68DAB20D23FB183F210A401A700B23FA180D23FB1812781B78C1
:400980009A4208D22D4B7A68033A2B498A5C1A60052000F0B9F92A4B7A6826498C4662441278D2B21A60274B0F22BA1812781A60254B0E22BA1812781A60052000F08EF8FF
:4009C0000B23FA180D23FB1812781B789A420CD91A4B7A68033A18498A5C1A60052000F093F902E0002000F06DF80C23FB181B78180000F097F9C046BD4605B090BDC046DB
:400A0000C0F1FF0FC1F1FF0FC2F1FF0FC3F1FF0FC4F1FF0FC5F1FF0FC6F1FF0FC7F1FF0FC8F1FF0FC9F1FF0FCAF1FF0FCBF1FF0FCCF1FF0FCDF1FF0F941000002CFF0B40CF
:400A400028FF0B401CFF0B4020FF0B4080B584B000AF02003960FB1D1A7080239B05FB60FB1D1B781F2B02D9002000F02BF8FB1D1B7810339B00FA68D3181B68BB60FB1DB2
:400A80001B7810339B00FA68D3183A681A60BB681800BD4604B080BD80B582B000AF0200FB1D1A70064BFA1D12781F210A40012191400A001A60C046BD4602B080BDC04682
:400AC00000E100E080B582B000AF0200FB1D1A7001BEC046BD4602B080BDC04680B582B000AF0200BB1D1A80BB1D1B88044A12785343180000F008F9C046BD4602B080BD4A
:400B0000D400002090B583B000AFFC1D00F006F903002370074B074A1268C02109020A431A60FB1D1B78180000F0FCF8C046BD4603B090BD00010B4080B500AF054B1A687A
:400B4000C0231B02134001D0012300E000231800BD4680BD00010B4090B583B000AFFC1D00F0DCF8030023700D4B0D4A12680D490A408021C9010A431A60094B084A1268D1
:400B800008490A40802109020A431A60FB1D1B78180000F0C7F8C046BD4603B090BDC04600010B40FF3FFFFF90B585B000AF78600B23FC1800F0B2F803002370FFF7BCFFFA
:400BC000031E04D00123FB60FFF7C6FF01E00023FB607B680D4A13407B600D4B0C4A12680C4911407A680A431A60094B1B68FB68012B01D1FFF786FF0B23FB181B781800E9
:400C000000F090F8C046BD4605B090BD0404040010020B40FBFBFBFF80B500AF344B1B68042213401FD0334B1B680422134017D0314B1B6804221340DA432E4B1B681A403E
:400C40002C4B1A602C4B1B68042293431A002A4B1A602A4B1B68002B02D0284B1B6898470420FFF7A1FF224B1A688023DB00134022D0204B1A688023DB00134017D01E4B40
:400C80001A688023DB001340DA431A4B1B681A40184B1A60184B1B68194A1A40164B1A60164B5B68002B02D0144B5B6898478023DB001800FFF778FF0D4B1A688023DB02A8
:400CC000134011D00B4B1A688023DB02134006D00A4B9B68002B02D0084B9B6898478023DB021800FFF760FFC046BD4680BDC04610020B40E00000207001002074010020F9
:400D0000FFFBFFFF000000000230800804D0C0460138FDD1C046C046C0467047EFF3108072B6704780F310887047C046014B18687047C046440100200E4B70B500251E008F
:400D40000D4CE41AA410A54204D0AB00F35898470135F8E700F0B6F9084B00251E00084CE41AA410A54204D0AB00F35898470135F8E770BDD0100000D0100000D010000016
:400D8000D8100000002310B59A4203D0CC5CC4540133F9E710BD03008218934202D019700133FAE77047000000000000594F552057494E212121000068656C6C6F00000078
:400DC00000300F40800200330F40000100400F400004000080320F40141000008000000003000F4069300F403D310F4012320F4047330F4008410F4002600F40800F823852
:400E0000837200800220042006C008E009130C130D020E0C0F09101312041403161419131A151D1020E0240A261428402A202B042D012E082F0A300F3103331034E03610D5
:400E4000370C3A023E403F404053410145E047BC483249FF4AFF4BFF4EF04F44500C5401580459045A045B045F0166C06A406B02800982D0870889808A038B138C108EAC9B
:400E8000930C9620992C9B439C0C9E71A014A171A30EA4DCA622A810AA40AD71AF06B330B41FB50FB6E0B7C0B988BA80BB20BF04C002C704C9FFCA07CBFFCC40CD20CEF008
:400EC000CF05D008D804D904DA04DF01E040E1A8E240E32000040110024003020402059009180A200B800D800F2010891220150216041704180419601A081B021D901F4081
:400F00002042210424022620272529202A802D802F4232403310340136203701384039103A403E083F2041804220472049814B0151095510562C571059415A24C0DFC2AE9A
:400F4000C47FCA9CCCACCE6CD02AD208D60F1202160119011C0422012E0232013301340436023A023E543F045418580459045B045F0100440280030808A00A600D080F8151
:400F80001088130415801702180419261A011B481D411E441F04221523022720282029212A80308031043211351038284020410442414801492051485A085D026540670824
:400FC00069106A806B1070947304808C828087209040910893019510968499109E809F10A001A280A408B284B480B710C00FC2BFC49ECA0FCC2FCE06D00BD20CD682D8309E
:401000000E10630482108704C220D840E080E24010011101C3000000F3180C000F08F00082000000FF0000041C3CE341003CF3420C100000087F00000400000341670018B2
:4010400000040080C0802C200F1F1C4000802820000000046304010005000C0E14FFFFFF62A0F0410C0000000000021204040404000000010000000000004002001030107C
:401080000010101200000000000000000000000000000000030405060708090A0B0C0E0F101112131415161718191B1C1D1E1F2021222325262728292A2B2E2F3031323377
:4010C00034354300F8B5C046F8BC08BC9E4670479102000001060000F8B5C046F8BC08BC9E46704769020000F8100000C800002080000000400000000000000000366E015E
:40110000C05D0000180000000000E02E01000000040404000000000000000000000000000000000000000000000000000000000000000000C210000000000000000000008D
:4011400000000000000000000000000000000000000000000000000000000000000000000000000000000000000000000000000000000000E400002000000000000000006B
:40118000000000000000000000000000000000000000000000000000000000000000000000000000000000000000000000000000000000000000000000000000000000002F
:4011C00000000000000000000000000000000000000000000000000000000000000000000000000000000000000000000000000000000000000000000000000000000000EF
:4012000000000000000000000000000000000000000000000000000000000000000000000000000000000000000000000000000000000000000000000000000000000000AE
:40124000000000000000000000000000000000000000000000000000000000000000000000000000000000000000000000000000000000000000000000000000000000006E
:0200000490303A
:020000009D5C05
:0200000490402A
:200000000000000000000000000000000000000000000000000000000000000000000000E0
:0200000490501A
:0C000000000204C81193110104CDAEEF02
:0200000490600A
:0100000001FE
:00000001FF